:1000000000800020BD010000D50D00008D0D000016
:100010008D0D00008D0D00008D0D00008D0D000078
:100020008D0D00008D0D00008D0D0000D50D000020
:10003000D50D00008D0D00004D2100005122000063
:10004000D50D0000D50D0000D50D0000D50D000028
:10005000D50D0000D50D0000D50D0000D50D000018
:10006000D50D0000D50D0000D50D0000D50D000008
:10007000D50D0000D50D0000D50D0000D50D0000F8
:10008000D50D0000D50D0000D50D0000D50D0000E8
:10009000D50D0000D50D0000D50D0000D50D0000D8
:1000A000D50D0000D50D0000D50D0000D50D0000C8
:1000B000D50D0000D50D0000D50D0000D50D0000B8
:1000C000D50D0000D50D0000D50D0000D50D0000A8
:1000D000D50D0000D50D0000D50D0000D50D000098
:1000E000D50D0000D50D0000D50D0000D50D000088
:1000F000D50D000061250000D50D00008D26000003
:10010000D50D0000B9270000D50D0000D50D000069
:10011000D50D0000D50D0000D50D0000D50D000057
:10012000D50D0000D50D0000D50D0000D50D000047
:10013000D50D0000D50D0000D50D0000D50D000037
:10014000D50D0000D50D0000D50D0000D50D000027
:10015000D50D0000D50D0000D50D0000D50D000017
:10016000D50D000001140000D50D0000D50D0000D4
:10017000D50D0000D50D0000D50D0000D50D0000F7
:10018000D50D0000D50D0000D50D0000D50D0000E7
:10019000D50D0000D50D0000D50D0000D50D0000D7
:1001A000D50D0000D50D0000D50D0000D50D0000C7
:1001B000D50D0000D50D0000D50D0000564B4CF2BA
:1001C000205210B51A804DF628121A8000BF00BFC9
:1001D00000F004FE514B4FF010621A60504A9A60D2
:1001E000504ADA60504A136813F4807304D14F49BF
:1001F0000B604FF4A85313604D4B1A78110703D5C9
:100200001A7842F008021A704A4B4B492A221A7097
:100210004A4A4B4B8B4204D252F8040F43F8040B6A
:10022000F8E7484B484900228B4202D243F8042B9E
:10023000FAE74649464A002352F8230041F82300D2
:1002400001336F2BF8D1434B434A802103F8011B44
:100250009342FBD1414B3D4A1A60414B8A221A70AE
:10026000A3F5805324225A70A0221A709A7992071B
:10027000FCD59A79D406FCD43A4A937903F00C035E
:10028000082B384BF9D103221A7140225A719A79FE
:100290009006FCD5334A9179324B4906FBD5324A58
:1002A000324911600221516020221A709A7902F0BD
:1002B0000C020C2AFAD12E4B2E4A1A602E4B2F4AD2
:1002C0001A6000225A60072243F8042C2C4AC3F813
:1002D0000C2D62B600F06CFF144B1B68DA0705D5D5
:1002E000284800F001FE284B284A1A60284B1B784A
:1002F0005B0609D5244C254B22689A4204D121483B
:1003000000F0F2FD0023236002F014FB00F06CFD0E
:1003100001F0A6FFFEE700BF0E200540308004403C
:10032000823F04000100002B10D0034014D0034092
:1003300002D0074000E007409091FF1F6C3A000098
:100340002087FF1F9091FF1F8496FF1F0082FF1FD1
:100350000000000000E400E05FE400E008ED00E0E1
:100360000050064000400640448004400000030165
:1003700004800440C010050014E000E0FF76010096
:1003800000002020D4DEAD5B1CE00340A5C3945ADE
:1003900000F00740FFFFFFFFFFFFFFFFFFFFFFFF32
:1003A000FFFFFFFFFFFFFFFFFFFFFFFFFFFFFFFF5D
:1003B000FFFFFFFFFFFFFFFFFFFFFFFFFFFFFFFF4D
:1003C000FFFFFFFFFFFFFFFFFFFFFFFFFFFFFFFF3D
:1003D000FFFFFFFFFFFFFFFFFFFFFFFFFFFFFFFF2D
:1003E000FFFFFFFFFFFFFFFFFFFFFFFFFFFFFFFF1D
:1003F000FFFFFFFFFFFFFFFFFFFFFFFFFFFFFFFF0D
:10040000FFFFFFFFFFFFFFFFFFFFFFFFDEF9FFFF23
:1004100010B5054C237833B9044B13B10448AFF33E
:1004200000800123237010BD9091FF1F0000000089
:10043000703A0000084B10B51BB108490848AFF3EB
:1004400000800848036803B910BD074B002BFBD0A0
:10045000BDE81040184700BF000000009491FF1F46
:10046000703A00009091FF1F0000000038B5104C5A
:100470001048114D17221623152100F04DFC20467F
:1004800000F02CF928460D2100F016FC284600212A
:1004900000F030FC3A232621084884F8E03001F0CF
:1004A000E3FC074801F0E4FE012384F8EC3038BD9A
:1004B000BC91FF1F7893FF1FB491FF1F70350000A0
:1004C0002C87FF1F2DE9F041012182B0184800F070
:1004D00073FB0221C5B216488DF8045000F06CFB86
:1004E00003215FFA80F812488DF8058000F064FB64
:1004F0001321C7B20F488DF8067001AC01F0B4FCAF
:100500000DF10606294600230A220B4801F0C0FE21
:10051000B44202D014F8011FF5E7074801F0A8FE25
:10052000064B1D7083F801809F7002B0BDE8F0811A
:10053000BC91FF1F983500002C87FF1F7893FF1F89
:1005400010B501210E4800F037FB112104460D487B
:1005500001F08AFC54B107210B4801F085FC0B48DF
:1005600001F086FE0A4B01221A7410BD08210948C9
:1005700001F07AFC054801F07BFE054B1C7410BDB0
:10058000BC91FF1FAC350000C03500002C87FF1F59
:100590007893FF1FC835000010B501210E480F4C9D
:1005A00000F00AFB011C18BF0121204600F0A2FB4D
:1005B00018210B4801F058FC62680A4B0A48002ACF
:1005C00016BF18460321022101F04EFC0748BDE882
:1005D000104001F04DBE00BFBC91FF1FB491FF1F42
:1005E000DC350000D4350000D83500002C87FF1F13
:1005F00070B5294884B000F0D7FA00282ED1274CD6
:10060000274800F09DFB2368DB0718D5254E264DB3
:10061000336802932A68029B224D234C9B1AB3F540
:10062000FA7F0AD90D21214801F01EFC204801F073
:100630001FFE2B680393039B236004B070BD20460C
:1006400000F0EAFB174E184D0028E1D03368019303
:10065000019B2B60204600F0E5FBD9E70E4800F037
:10066000E5FA022811D003280CD0012810D0262149
:10067000104801F0F9FB0E4801F0FAFD064800F0C1
:10068000F9FABCE7FFF788FFB9E7FFF759FFB6E7CC
:10069000FFF718FFB3E700BFBC91FF1FAC91FF1F2E
:1006A0007893FF1F8C93FF1FB091FF1F203600002F
:1006B0002C87FF1FF8350000064A074B10889178F9
:1006C000A3F8D800002283F8DA10C3F8DC2083F8FE
:1006D000EC2070476C350000BC91FF1FD0F8D8307B
:1006E000A0F8E030012210B480F8D1206424190C65
:1006F0000022C0F8F04080F8E210C0F8CC2010BC16
:10070000704700BF2DE9F0478B4D82B02B680093F6
:100710000446009E01F07EFB00281DDD94F8EC30BD
:10072000002B40F088800027B8464FF0010903E015
:1007300001F070FB002813DC2B680193019BD4F8B7
:10074000F0209B1B9342F3D301F064FB0028EFD110
:1007500094F8EC30002B40D1002002B0BDE8F087C7
:10076000D4F8CC30C82B00F3D08094F8D1307BBBC8
:10077000206803685B6998475FFA80FA94F8EC3068
:100780002BB1BAF13A0F02D0504601F0F1FB94F8C8
:10079000E0309A4554D0002B3ED094F8D010D4F8D5
:1007A000CC3094F8E120924500F08D8094F8E2007E
:1007B00050455DD0E21882F804A031B1BAF1FF0FC4
:1007C0005CD00133C4F8CC30E21882F80480B3E77F
:1007D00001F0E4FA5FFA80FAD0E73321574801F0DC
:1007E00043FB0721564801F03FFBD4F8CC30012BE6
:1007F0000DDD261D012501E0C82D08D016F8010FDA
:1008000001F0B6FBD4F8CC300135AB42F4DC012169
:100810004C4801F029FB9FE7D4F8CC30E3B994F8B9
:10082000E12084F8D090924553D094F8E2105145DD
:1008300029D00121BEE70821434801F015FB72E7EA
:10084000D4F8CC3083B194F8D01061BB94F8E12097
:10085000924539D00021A9E794F8D010BAF1000FE1
:100860009FD10029F2D09CE784F8D090012198E72D
:1008700041B992455BD1002F9CD030E0D4F8CC3008
:10088000E218A2E733B992454DD10121002F91D052
:1008900025E00127BAF1000F0FD1002AF5D0E218A8
:1008A00082F804A08DE7BAF1000F3FF47AAFC4F8E4
:1008B000CC80C4F8D480002373E7D4F8D41001317D
:1008C000C4F8D410DFE721B90021002F3FF472AF44
:1008D00005E094F8E210514501D1002BD9D1E2187E
:1008E00000251571D4F8D420C4F8E830C4F8E42009
:1008F000C4F8D450211D04F1F40002F033FBC4F815
:10090000CC5084F8D050012027E741210F4801F056
:10091000ABFA002284F8D020E31CCB3403F8012F7B
:100920009C42FBD118E7E21882F804A046E7E218DF
:1009300082F804A049E700BF8C93FF1F80360000B7
:10094000B4360000BC360000303600003C360000F3
:100950002DE9F047044600688D4D03682A681B693D
:1009600082B00092009E9847002821DD94F8EC3078
:10097000002B40F098800027B8464FF0010905E0B1
:10098000206803681B699847002815DC2B680193D1
:10099000019BD4F8F0209B1B9342F1D3206803689D
:1009A0001B6998470028EBD194F8EC30002B5BD101
:1009B000002002B0BDE8F087D4F8CC30C82B00F39B
:1009C000D4802068C4F8DC3003685B69984794F8E9
:1009D000EC305FFA80FAFBB994F8E0309A4525D004
:1009E0009BB394F8D010D4F8CC3094F8E100824551
:1009F00000F08F8094F8E220524565D0E21882F82A
:100A000004A031B1BAF1FF0F64D00133C4F8CC3087
:100A1000E21882F80480B9E7BAF13A0FDCD0504608
:100A200001F0A6FA94F8E0309A45D9D1D4F8CC3048
:100A3000002B45D094F8D010002940F08C8094F819
:100A4000E100824566D00021D4E7D4F8CC307BBBEE
:100A500094F8E10084F8D090824560D094F8E220C8
:100A600052453CD00121C9E734214A4801F0FCF944
:100A70000721494801F0F8F9D4F8CC30012B0DDDFD
:100A8000261D012501E0C82D08D016F8010F01F040
:100A90006FFAD4F8CC300135AB42F4DC01213F4889
:100AA00001F0E2F984E708213D4801F0DDF962E751
:100AB00094F8D010BAF1000F97D1002995D1BEE774
:100AC00084F8D090012190E741B982451DD1002FD3
:100AD00094D02AE0D4F8CC30E2189AE733B98245B2
:100AE00051D10121002F89D01FE00127BAF1000F59
:100AF00005D10028F5D0E21882F804A085E7D4F8E3
:100B0000D4200132C4F8D420E9E7E21882F804A026
:100B10007FE721B90021002F3FF470AF05E094F882
:100B2000E220524501D1002BDFD1E21800251571DA
:100B3000D4F8D420C4F8E830C4F8E420C4F8D45081
:100B4000211D04F1F40002F00DFAC4F8CC5084F831
:100B5000D05001202DE7BAF1000F3FF446AFC4F8A2
:100B6000CC80C4F8D48000233FE747210D4801F032
:100B70007BF9002284F8D020E31CCB3403F8012F4A
:100B80009C42FBD114E7E21882F804A03AE700BFC8
:100B90008C93FF1F08370000B4360000BC360000FD
:100BA00030360000C036000090F8D1300BB9FFF7A6
:100BB000CFBEFFF7A7BD00BFF0B5D0F8E4208A4252
:100BC000B5B029DB03460E4693F8E07093F8E25087
:100BD00093F8E12003F1F401002402A801948DF8B8
:100BE00006208DF804708DF8055002F0BBF902A8BC
:100BF00001A902F015FAA6420CDB01F091FE0134C6
:100C0000054601A9002002F00BFAA642F5DA2846B3
:100C100035B0F0BD2546FAE73B21024801F024F942
:100C20000148F5E74037000019FCFFFF30B5B5B0CB
:100C300090F8E22090F8E13090F8E050002400F1C4
:100C4000F40102A801948DF805208DF806308DF886
:100C5000045002F087F901A902A802F0E1F901F0BD
:100C60005FFE01A90546204602F0DAF9284635B0B4
:100C700030BD00BFD0F8E830012B16DD70B5064658
:100C800000F1F405012401E0C82C08D015F8010F8B
:100C900001F06EF9D6F8E8300134A342F4DC01210A
:100CA0000448BDE8704001F0DFB80121014801F0BF
:100CB000DBB800BFBC36000010B50446002301605D
:100CC000C8B26360012100F01FFA23682279DBB209
:100CD00032B9074A52F83330012283F8002110BD9F
:100CE000034A52F83330012283F8802010BD00BF40
:100CF000A43700000368074A4160DBB211F0FF0F20
:100D000052F833304FF0010214BF83F8802083F88B
:100D100000217047A437000010B504468260C3600C
:100D20004160C9B2012000F0EFF9217A012000F002
:100D3000EBF9217B0120BDE8104000F0E5B900BFD0
:100D400038B5057C04466DB92946007900F0DEF817
:100D50002946207A00F0DAF82946207BBDE83840A1
:100D600000F0D4B80178007900F0D0F86178207AEA
:100D700000F0CCF8A178207BBDE8384000F0C6B880
:100D8000014B01221A7470477893FF1F08B5104C6D
:100D900008E0236859050DD423681A050FD4236889
:100DA000DB0411D423685803F3D500F029FB236832
:100DB0005905F1D501F0D4FB23681A05EFD501F0F0
:100DC00065FC2368DB04EDD501F0F6FCEAE700BF23
:100DD0003480044008B5FFF7D9FF00BF014B102253
:100DE0001A80704700200540704700BF094908B5C8
:100DF0000B6830B16A461844A2F58052904202D284
:100E00000860184608BD01F08FFD0C2303604FF009
:100E1000FF3008BD2087FF1F0078B0FA80F040093E
:100E2000704700BF01230370704700BF10B40F4B21
:100E300053F8302092F880422CB1012369B182F836
:100E4000803010BC704703EBC0035B681A6841B97F
:100E500022F002021A6010BC704782F8003110BC08
:100E6000704742F003021A6010BC7047A4370000BC
:100E70001C4A02EBC00301295B6811D004291BD076
:100E800052F83000002280F8802229B1022920D0B7
:100E9000032922D01A6070474FF480721A6070479D
:100EA00052F830004FF4A27280F880121A601A686B
:100EB00022F020021A60704752F830104FF4A272EC
:100EC000012081F880021A601A6842F020021A603C
:100ED000704740F203121A6070474FF481721A6033
:100EE000704700BFA437000030B4054B054D064CD9
:100EF000002210211A602A602060196030BC7047FF
:100F000014D0034004D0034000D00340282838B553
:100F10002ED0002904464FDD5F4B1B78012505FAD2
:100F200003F28A4202D8212837D938BD0338C2B229
:100F3000012A3AD9202C4AD0192C48D0574A126895
:100F400002FB011222FA03F31D2800F29B80DFE866
:100F500000F0928B847D9999766F999999999999D6
:100F600099999968615A53994C9999999999994580
:100F7000494B1B780B2B08D90C2B1CBF0C3B194180
:100F80000846BDE8384001F097BAC3F10C03994018
:100F90000846BDE8384001F08FBA2946FFF746FF02
:100FA0002946BDE83840FFF763BF3D4A126802FB9F
:100FB000011222FA03F3C7E72128B6D80021FFF770
:100FC00035FF20460121BDE83840FFF751BF354AC3
:100FD000126802FB011222FA03F3B5E73249334AE1
:100FE0000B604FF45173136038BD3149314A0B60C7
:100FF0004FF45173136038BD2F49304A0B6040F2F3
:101000004443136038BD2E492E4A0B6040F24443DE
:10101000136038BD2C492D4A0B6040F244431360E5
:1010200038BD2B492B4A0B6040F24443136038BD56
:1010300029492A4A0B6040F24443136038BD2849CD
:10104000284A0B6040F24443136038BD2649274AC2
:101050000B6040F24443136038BD2549254A0B60BC
:1010600040F24443136038BD2349244A0B604FF4D7
:101070005173136038BD2249224A0B604FF45173FB
:10108000136038BD212C3FF650AF7F29D4BF00211B
:101090000121204693E700BF2487FF1F08800340FB
:1010A0000890034008800B4010800B4048A004408B
:1010B00018800B404CA004401880034008B0044046
:1010C0001080034004B004404080034018C0044036
:1010D0003880034014C004402880034010B004400E
:1010E000208003400CB004403080034010C0044016
:1010F000488003401CC004401890034034900440D2
:101100001090034030900440212801D8FFF7B0BE72
:10111000704700BF2DE9F843054672B6204F214BBA
:10112000214A1B683C68126862B6520102D5322B14
:1011300088BF013495B3C3F5BB331C4EDFF8649010
:10114000DFF86480FF334FF47A72A6FB031302FBCF
:1011500004F404EB931472B6D9F800103A68D8F886
:1011600000E062B6C1F5BB33FF33A6FB03031EF0FC
:10117000806FC4EB93134FF47A7002D0322988BF8A
:10118000013200FB0233B3F57A7F04D3013D05D071
:1011900004F57A74DFE701F0D1F8DCE7BDE8F88305
:1011A0008C93FF1F18E000E004ED00E0ABAAAAAAB0
:1011B000F8B52D4B2D49DFF8D0E0DFF8D0C02C4E2C
:1011C0002C4D2D4C2D4A2E4F4FF4000018604FF03F
:1011D000807018604FF0007018604FF080601860E9
:1011E0004FF0006018600020086028234BF6FF7164
:1011F000CCF80010CEF80030336013602B60236011
:101200003B60B3629362092245F8242CC4F8D80FDE
:1012100005F57F65C7F8D41F07F5FF2707F5FA67BF
:10122000C6F8F83F2B6006F5FF26C4F8D42F05F565
:10123000FD2504F5FF24386006F2F476114831608C
:1012400005F5FF6504F5FD642B602360026001F085
:10125000C3F83220FFF75EFF00F0FEFC4FF4AF70E2
:10126000BDE8F840FFF756BF08E100E00480034006
:1012700014800340248003402C8003401C800340E2
:101280003480034000800B400C8003400880034002
:10129000431E032B14D872B60A4951F8230068B1D3
:1012A00070B4094C058834F81320466841F823606F
:1012B000521B24F8132062B670BC704762B67047A8
:1012C00000207047E893FF1F6C96FF1F013803282A
:1012D0000BD872B6074B53F8203043B100205B683F
:1012E0000130002BFBD162B67047002070471846D2
:1012F000F9E700BF3C94FF1FF0B472B61A491B4EC9
:10130000012311F8014B194F9A00240742F00105FF
:1013100005D556F8324064B156F83520BAB10133DC
:10132000052BEED162B6124B00221A70F0BC00F011
:101330000FBD0F4C0F4D217847F8325007EB431388
:1013400008304A1E5860227062B6F0BC70470849E7
:10135000094B0A7847F8353007EBC5030830013AE6
:1013600058600A7062B6F0E7E03800000080FF1FA6
:101370006594FF1F88004000C8004000431E032BF7
:101380001DD81B4A400140F0100030B4104472B622
:10139000184CE25C032A1BD8DFE802F00212151792
:1013A00003220D88E25410F0080F14BFC8238823CD
:1013B00043EA054308310360416062B630BC7047C0
:1013C00008300222EDE70522EBE708300422E8E7C7
:1013D000094A52F8230038B1084A52F82300416004
:1013E00042F8231062B6E9E742F82310034AF7E710
:1013F0000080FF1F7494FF1F3C94FF1F4C94FF1F3D
:101400002DE9F04FDFF804A3DFF804B387B044E020
:10141000A94F4FEA930807EBC809013ED9F8042009
:1014200003F00803F6B2A2F1080003F0FF04002B5A
:1014300040F0FE8057F838301B0C99B222F8081C97
:10144000002B00F0EC809D4B22F8064C42F8044C37
:1014500053F82620002A00F02B82994D55F82630AB
:101460005860984C45F8260034F81630194424F892
:10147000161000F04DFC002800F01382924A934BA6
:1014800019F0080F00F1080018BF1346C9F804004E
:1014900047F8383008238AF800309AF80040E4B260
:1014A00060071AD58A4B1B78A3B18A490A7802F0E3
:1014B000FF0322B1013BDBB20B7003B900BE8649CA
:1014C0000A7802F0FF032AB1013BDBB20B70002B5C
:1014D00000F0BD8104238AF8003004F0080303F013
:1014E000FF02002B00F0C8809BF80030DBB21E0921
:1014F0008ED19C08704F57F8342007EBC401C2F31B
:101500008302013A49680C2A00F28580DFE802F084
:101510007979838383838383428383830700086885
:101520006E4B6F4D0193684B4A686E4E47F83430EE
:1015300081B240F28164694B6A6028600022012018
:10154000A1421A603A61BA61307000F2E380B1F5ED
:10155000D06F80F02782B1F5817F00F0E08100F24A
:10156000C381802900F03682822940F0DE81A9887B
:101570005D4B01F07F01042900F2D8815B4C8900AA
:101580000B44227062701A78930740F12283207016
:10159000022023E2514B01931A683AB3544B514E47
:1015A0005449188834780D784028864645F002085A
:1015B00028BF4FF0400E002C84F001043470CEEBB5
:1015C00000000CBF8824C82407EBC80680B285F051
:1015D000010544EA0E447260188047F838407244AE
:1015E0000D70002800F0B780019B1A603C4B1A88F0
:1015F000B2F5A06F0FD100219A7859703E4B1A7046
:1016000009E0374A108842F22102904200F0A88097
:101610002D4A47F83420394A012313703AE72A4A01
:101620002A4B19F0080F18BF134647F8383031E736
:1016300000F08EFB324A334952F82630002B00F07E
:101640003B8158688C5D42F8260003F10802C9F816
:101650000420032C05D8DFE804F02C0229260222FE
:101660008A551A8819F0080F0CBF8823C82343EA4B
:10167000024347F838300DE7E00700F1EB80210620
:1016800000F12881A20706D51F4A204913780220BD
:10169000DBB213700870E30602D51C4B10221A70DF
:1016A00007B0BDE8F08F04228A55DAE705228A5593
:1016B000D7E703228A55D4E70080FF1FE893FF1F76
:1016C0009493FF1F6C96FF1FC800400088004000E5
:1016D0007094FF1FF993FF1F7894FF1F9093FF1FD3
:1016E0005C94FF1FF893FF1FC02007406894FF1F02
:1016F000A493FF1F6494FF1F982007409420074085
:101700003C94FF1F7494FF1F8820074080200740EF
:101710009020074042F22104A14200F0948043D877
:10172000B1F5086F00F0A881B1F5106F40F0FD80B1
:10173000B84AB94CA978117004F1800503E0083467
:10174000AC4200F09E81236A1906F8D5606A083819
:1017500000F0FEFAF3E7BEF1400F18BF002243E7A6
:10176000AE4ACD1D11F8013B02F8013FA942F9D163
:10177000AB4A1268862A00F01181AA49AA4E0A785B
:10178000307882F00105002842F002020D700CBF93
:101790008821C82147F8321007EBC20280F001000F
:1017A00000213070516033E742F22124A14240F021
:1017B000FE81DFF8BCC29D4B9D49AC78DCF800503F
:1017C0001D6081460C7000200290804684460446CD
:1017D00094490D7845F0020E07EBCE03B9F1000FE6
:1017E0005C600CBF8824C82444EA080385F0010427
:1017F00047F83E3032700C70DFF81CE28A4BDFF89D
:101800002482002840F09880BCF1400F1BD144F0A6
:10181000020407EBC403029FDFF8FCE15F60002ACB
:1018200040F09F80020442F0880207444EF83420C2
:1018300086F800900D703B46402804D100207D4A78
:10184000019910800B607C4A01231370E3E600F0DD
:10185000EBFB3FE6704B784872491A614FF0020E7D
:1018600080F800E0754F0A70754919609960754EEF
:10187000754D764C9A610D213970FF213170DFF87A
:10188000F4E129702270724D724A8EF800109F2781
:10189000012406F8047C5D600470DA6007B0BDE8DE
:1018A000F08F6D4A47F83800137801331370F1E573
:1018B00043F82600694DD4E58B5D032B67D801A260
:1018C00052F823F095140000951400001919000037
:1018D0001319000059495C4B80220D2008701A70C2
:1018E000A2077FF5D8AECFE640F20232914240F037
:1018F0005681A98801F07F01042916D86A88A2B907
:101900004E4C89000C448146217841F0020121703F
:1019100059E701238B55BDE500238B55BAE5A9880E
:1019200001F07F01042940F24781444B0F221A70D5
:10193000414A012313706EE640287FF668AF44F0F9
:1019400002040EEBC401029E4E60AAB1444A83F821
:1019500000903346403888F8005040334EF8342029
:101960006DE70204029B86F8009042F0C8020D70F9
:1019700003444EF834205FE783F80090029B304A1E
:1019800088F80050403840334EF8342057E719F0BB
:10199000080F0CBF022303238B557BE5314A0F212F
:1019A0001170EAE6304A5468002CBED06888B5F859
:1019B00004E003E00C325468002CB6D01388834254
:1019C000F8D153887345F5D1000A03280CBF20785D
:1019D000108903E0254C022022706270EA8882425E
:1019E00080F00C810F490D78402A45F0020E944694
:1019F00007EBCE0028BF4FF0400C04EB0C03446013
:101A00000293CCEB02004FEA0C484FF00109002290
:101A1000C824E9E67094FF1F0080FF1F7396FF1F24
:101A20007496FF1F6494FF1FF893FF1F7C96FF1F9F
:101A30008894FF1FA493FF1F94200740C0200740F5
:101A400088004000882007408020074098200740F9
:101A5000A893FF1FFC93FF1F6594FF1F9493FF1F24
:101A6000C8004000F993FF1FE43800006894FF1F8E
:101A70008C93FF1F8C200740684A694C12782270B3
:101A8000ACE76849684B694A02916949694C6A4DFB
:101A9000039405964FF0000988461C4616460495A7
:101AA000206828B1456800F053F92846002DF9D187
:101AB00000232360049B30681A46002342F8293033
:101AC00028B1456800F044F92846002DF9D10022DC
:101AD0003260029A98F800301146002241F8042B37
:101AE000039A0291023B4FF0000122F81910032BD8
:101AF00007D8DFE803F0340234024FF0010388F81E
:101B0000003009F10109B9F1040F04F1040406F1F0
:101B1000040608F10108C3D1484B059EDFF8309157
:101B2000DFF8308100211970012518F8013B09F810
:101B3000043B1A0718D4AC0044F0020244F003043A
:101B4000002347F8323047F834303D4B994505F1D2
:101B50000105EAD196F8009089F0010233E64FF0D2
:101B6000000388F80030CCE700F0D2F8AC0007EBB7
:101B7000451300F10802002837D05A60314B47F86E
:101B8000343000F0C5F844F0010307EBC30200F164
:101B9000080100B351602C4A47F83320CCE7B1F577
:101BA000A06F7FF4C2AE00224FF001090BE642F2B3
:101BB00021329142F7D0B8E66A88002A7FF4B5AEA8
:101BC000224C89000C448146217821F002012170C9
:101BD000F9E5022002E7194B44F001021B7847F8AF
:101BE0003200164A01331370A6E7144B134A1B78D0
:101BF000AC00013347F834001370C2E74028844634
:101C000028BF4FF0400C04EB0C03CCEB00004FEA74
:101C10000C48029300224FF00109D9E57094FF1F90
:101C20006894FF1F4C94FF1FE893FF1F3C94FF1F15
:101C30007494FF1F6C96FF1F9493FF1F6594FF1F02
:101C4000D420074088004000C8004000C020074062
:101C5000C4200740E03800002DE9F843204C00F094
:101C600017FE002204F1880023461A605A600833E8
:101C700083424FF00001F8D11A4A1B4F13681B4DE5
:101C80001B481C4EDFF87880DFF878C0DFF87890CA
:101C9000DFF878E043F480231360C4F307233B703C
:101CA000C4F307432B70240EFF2302F5283204707F
:101CB000114D88F8003011488CF80030D432337060
:101CC000012389F8003070268EF800104FF400745C
:101CD000102107F8183C2E7004601170BDE8F883DD
:101CE0000080FF1F348004409C200740B020074044
:101CF000B42007401020074049E400E008E100E07C
:101D0000802007408820074094200740002107409A
:101D100072B60D480268B2FA82F30B2B10DC4FF05A
:101D20000041D94022EA0102026062B6074803EB93
:101D3000C303DB00C2180021C15010465160704738
:101D400062B60020704700BF2887FF1FBC83FF1FBB
:101D50000D4B0E4AC31AA2FB03231B090B2B0CD8F5
:101D60000B4A127852B972B60A484FF00041026825
:101D700021FA03F31A43026062B67047064A1278EA
:101D8000002AF0D0FFF7B8BABC83FF1F398EE338C2
:101D90006594FF1F2887FF1F7094FF1F38B50F4DF4
:101DA000286878B143880288C118013393420C7ABD
:101DB00002D24380204638BDFFF7CAFF00232046E9
:101DC0002B6038BD064B1B782BB10320FFF760FA60
:101DD00028600028E6D14FF0FF3038BD8494FF1F03
:101DE0007094FF1F10B5094C206818B1438818443F
:101DF000007A10BD064B1B782BB10320FFF748FA81
:101E000020600028F2D14FF0FF3010BD8494FF1FF6
:101E10007094FF1F044B054A1B6890881BB11A88F9
:101E20005B88D31A184470478494FF1F6C96FF1F79
:101E30000B4B1B789BB110B50A4C206848B1FFF7DB
:101E400087FF002303202360FFF722FA30B1FFF75A
:101E50007FFF0320FFF71CFA0028F8D110BD704760
:101E60007094FF1F8494FF1F2DE9F04FDFF8F89066
:101E700083B0012289F80020019169B3DFF8EC807A
:101E8000364F019E8346D8F80000B0B3344D4488E5
:101E9000C4F14001B14228BF314604EB010E0022DB
:101EA0001FFA8EFE2A70761AA0F802E000F10802EE
:101EB00051B1013C224459441BF8014B02F8014F37
:101EC0008B45F9D1B0F802E0BEF13F0F0BD8254A9F
:101ED00005211170002ED6D10198002389F8003019
:101EE00003B0BDE8F08F4022028001460420FFF7D6
:101EF00045FA0022C8F80020E9E73A782AB3184DDD
:101F00004AF2F9244FF0010A07E0013C16D02A7882
:101F1000A2B900F013FA3A78BAB10420FFF7D6F963
:101F20000728F2D889F800A0FFF7F2FEC8F80000F1
:101F30000028ACD10C4B013C1870E8D101234FF0C4
:101F4000FF302B7003B0BDE8F08F00234FF0FF305F
:101F500089F8003003B0BDE8F08F00BF7094FF1F18
:101F60008094FF1F7894FF1F7994FF1F7C94FF1FBC
:101F700000B583B002AB012103F8010D1846FFF74D
:101F800073FF03B05DF804FB38B50E4D0E4C2868A6
:101F90000123237028B1408800232370C0F1400042
:101FA00038BD0A4B1B7813B90020207038BD0420BF
:101FB000FFF78CF90728F7D8FFF7AAFE286000285A
:101FC000E9D1F1E77C94FF1F7994FF1F7094FF1F04
:101FD000F8B5114B1B788BB1104E114D34680127A9
:101FE0002F7064B10F4A6388002717702146238041
:101FF0000420FFF7C3F9376000232B70F8BDFFF70B
:1020000087FE084B28B1014604201C70FFF7B6F983
:10201000F2E71F70F0E700BF7094FF1F7C94FF1F72
:102020007994FF1F7894FF1F38B50E4B1B7873B956
:102030000D4C216861B103F0FF054B880B80042033
:10204000FFF79CF9256038BD084B01221A7038BD96
:10205000FFF75EFE0028F7D00146BDE838400420B7
:10206000FFF78CB97994FF1F7C94FF1F7894FF1FB2
:1020700010B4EFF3108272B6437F33B9017F0129A8
:1020800007D003290FD00123437702B962B610BCF1
:102090007047124C2168A1B1114943610B688361FB
:1020A00008605861EFE70F4C216881B10E49436128
:1020B0000B688361086058610C4B4FF080511960C8
:1020C000E1E7074B4161816120601860DBE7064B67
:1020D0004161816120601860EEE700BF9C94FF1FA2
:1020E0009894FF1F8C94FF1F9094FF1F04ED00E055
:1020F00010B4047F4160022CC26002D010BCFFF714
:10210000B7BF836810BC184770B5EFF3108272B682
:102110000C4C206880B10C4E00254369236073B1DC
:102120009D6102B962B6457783689847EFF31082E4
:1021300072B620680028F0D102B962B670BD336073
:10214000EFE700BF8C94FF1F9094FF1FFFF7DCBFE9
:10215000184A30B41468002C27D0036821688B42D9
:102160000ED2CB1A00218460C1602360E060106051
:102170000223037530BC704711688B42144608D3A4
:10218000A2685B1A0360002AF6D18260C460A06076
:10219000EEE7D268C2608460E060C568CB1A0222B4
:1021A000A8602360027530BC70478460C460106012
:1021B000DEE700BF9494FF1FF8B5224E34682CB3BD
:1021C0002368002B3AD1204F1D4604E03468ECB15F
:1021D0002368002B32D1A36803B1DD60206933602E
:1021E000036825751B68BB4221D1037F4560022B24
:1021F000C46020D0FFF73CFF6368002BE6D023606B
:102200002046FFF7A5FF3468002CE1D1EFF31083DF
:1022100072B60E4A00211068116003B962B628B187
:102220008468FFF795FF20460028F9D1F8BD2246C3
:1022300000219847E0E783689847DDE7013B23608A
:10224000E4E700BF9494FF1FF1200000A494FF1F57
:10225000024A136801331360FFF7AEBF8C93FF1F70
:1022600008B5FEF703F9FEF7C3F900F067F8FAE7DF
:1022700000B5064A036812885B6883B001A9ADF80F
:1022800004200222984703B05DF804FBB438000034
:10229000F0B507468BB0002A33D0012A08BF0A22C6
:1022A00051B3212400E0F4B2B1FBF2F502FB1511A9
:1022B000C8B2092900F1300198BFC8B20AA988BF85
:1022C0003730214488BFC0B201F8240C661E29466D
:1022D000002DE8D133B1013CE4B20AAB23442D22F6
:1022E00003F8242C3B6801AA11195B683846C4F135
:1022F000220298470BB0F0BD30228DF82520212412
:10230000E8E70368C9B21B6898470BB0F0BD00BF8F
:10231000FFF78EBDFFF766BDFFF740BDFFF77ABD43
:10232000FFF756BEFFF730BE08461146FFF79CBDCB
:102330000846FFF71DBE00BF704700BF38B5224CEE
:10234000237803B138BD01232370FFF763FD70BB11
:1023500000F0F6F840BB00F089F910BB00F01CFA61
:10236000E0B900232370EFF30583002BEAD1EFF3EC
:10237000108172B6154B1868E0B1154C2278CAB9B5
:1023800045691D6001232370C5B1AA6101B962B618
:1023900000254577836898472570D3E700F0BEFA9B
:1023A000DFE700F0B9FAD9E700F0B4FAD3E7FFF7B6
:1023B000C3FFCDE70029C5D162B638BD054B1D600E
:1023C0000029E5D1E3E700BFA894FF1F9C94FF1FFD
:1023D000A094FF1F9894FF1F30B42948294A2A4B24
:1023E0002A4D6024E121047011701B78284C082BC1
:1023F00030D00A2B2748284937D00C2B0CBF352268
:102400003D2212232A60236002600B60234B244983
:102410001B78244ABBB101230B601360224B234974
:102420001B78234A012B26D9042B0FD9082B1ED940
:10243000102B94BF862387230B6013601D4B012252
:102440001A7030BC70470B601360E7E784230B60A1
:102450001360F3E700F58E200F49083001221323A3
:102460002A60236002600B60D0E73922F7E78523FA
:102470000B601360E2E780230B601360DEE700BFB0
:1024800000400740014007403C87FF1F08B0034061
:102490000CB0034008B00B400CB00B40AA94FF1FD7
:1024A00020B0034020B00B403D87FF1F24B0034005
:1024B00024B00B40A994FF1F0A4A0B49136843F448
:1024C000805313600B7843B1084B80221A7080F35D
:1024D0000C00074B00B218807047044BC0221A70E2
:1024E000F5E700BF2C800440AA94FF1F21C00C40D8
:1024F00000C00C40F0B44D1E2E46002400E0013414
:10250000B0FBF2F302FB1300092800F130078ABF89
:102510003730F8B2C0B206F8010F1846002BEED1E2
:102520000A1953704CB1107815F8016F28700133F7
:10253000E01A834202F80169F5DB0846F0BC7047F7
:10254000054A064B10781B78C0B2DBB2984238BF00
:102550004030C01A704700BFB094FF1FB194FF1FF6
:10256000F0B4384B1A7912F0300F2CD072B6997D36
:1025700001F0FF0200293DD062B6334F334938786D
:102580000D78334E1C46C0B2EDB2431C402BE179AE
:1025900028BF0023AB4202F1FF32C9B21CBFF15485
:1025A000184612F0FF02F0D12A4B1B68C2B23A70F3
:1025B0004BB1A84236BFC5F14005401B4019272842
:1025C000C4BF01221A701F49CA78D2B2150616D4A8
:1025D00052060DD51B4B1B795B0609D51E4B1F49B7
:1025E0001B6800220A7003B11A70164B3C22DA7085
:1025F000F0BC70474022D9795A7462B6E3E70B7990
:102600001C06E5D5164B174E1C783378E4B2DBB2C6
:102610009C420ED0144D01E0A3420AD00133402B5E
:1026200028BF00230879E85CC0B2C871087D07287C
:10263000F2D9DBB2034933700B79180644BF7C230F
:10264000CB70C5E700A00640B094FF1FB194FF1FF8
:10265000F494FF1FAC94FF1F3895FF1F3495FF1FA4
:102660003C95FF1F3595FF1FB494FF1F054A064B8D
:1026700010781B78C0B2DBB2984238BF4030C01A25
:10268000704700BFB095FF1F4595FF1FF0B4384B52
:102690001A7912F0300F2CD072B6997D01F0FF023A
:1026A00000293DD062B6334F334938780D78334E28
:1026B0001C46C0B2EDB2431C402BE17928BF002379
:1026C000AB4202F1FF32C9B21CBFF154184612F0FE
:1026D000FF02F0D12A4B1B68C2B23A704BB1A8423C
:1026E00036BFC5F14005401B40192728C4BF012251
:1026F0001A701F49CA78D2B2150616D452060DD5E3
:102700001B4B1B795B0609D51E4B1F491B6800221A
:102710000A7003B11A70164B3C22DA70F0BC704795
:102720004022D9795A7462B6E3E70B791C06E5D5E5
:10273000164B174E1C783378E4B2DBB29C420ED0B5
:10274000144D01E0A3420AD00133282B28BF0023F7
:102750000879E85CC0B2C871087D0728F2D9DBB2FD
:10276000034933700B79180644BF7C23CB70C5E74F
:1027700000B00640B095FF1F4595FF1F7095FF1FE5
:102780004095FF1FB495FF1F4495FF1FB895FF1F8D
:10279000B195FF1F4895FF1F054A064B10781B781F
:1027A000C0B2DBB2984238BF4030C01A704700BF99
:1027B000C095FF1FC195FF1F30B42B4B1A799406AB
:1027C0001FD52A48DA790378294901333F2B097844
:1027D000C8BF00238B42D2B203D0264CD9B2E254F8
:1027E0000170254A116861B1244A1278D2B293422D
:1027F00036BFC2F140029B1A9B18272BC4BF01238E
:102800000B70194AD378DBB2180611D45A060DD5CD
:10281000154B1B795B0609D5194B1A491B68002219
:102820000A7003B11A70104B2C22DA7030BC70475A
:1028300011790906EAD5144910480C780178C9B213
:102840008C420DD04A1C272A84BF00210A460F4D16
:10285000054C98BFD1B2AA5CD2B2E2710170D5E743
:102860006C21D170D2E700BF00C00640C095FF1FA9
:10287000C195FF1FEC95FF1FBC95FF1F2D96FF1FF5
:102880003096FF1F2C96FF1F3496FF1FC495FF1F25
:1028900070B584B072B6194B194D1A487022412692
:1028A0000F2480211A702E701A4604701970137844
:1028B0001B06FCD5144B186862B6144B144C984296
:1028C00098BF00EB800001A998BF40000A22FFF7E3
:1028D00011FE01A92046002311F8012B01333AB162
:1028E0000A2B20F8022FF7D11623237004B070BDF5
:1028F0005B00DBB2237004B070BD00BF000002407B
:102900000700024006000240080002407F9698003F
:10291000CC87FF1F704700BF704700BF704700BFE4
:102920000A22002100F052BC014B1868704700BF1A
:10293000108CFF1F70B50F4E0F4D761BB61018BFD1
:10294000002405D0013455F8043B9847A642F9D13C
:102950000A4E0B4D761B01F07BF8B61018BF002411
:1029600006D0013455F8043B9847A642F9D170BD12
:1029700070BD00BF5C3A00005C3A00006C3A000099
:102980005C3A0000D0F8EC00704700BF024B0146F3
:10299000186800F003B800BF108CFF1F2DE9F04F3E
:1029A00001F10B05162D83B0064640F29F8035F0ED
:1029B000070500F1BF80A94200F2BC8000F0BCFA1C
:1029C000B5F5FC7FC0F09C826B0A00F0BA80042B46
:1029D00000F28381A80900F1390E4FEA4E03383026
:1029E000C44F07EB8303A3F108015C68A14207D140
:1029F000ACE0002A80F2AC80E468A14200F0A6803E
:102A0000636823F003035A1B0F2AF2DDB9493C69BE
:102A100001F1080E744500F0B381636823F00303ED
:102A20005A1B0F2A00F39981002AC1F814E0C1F85B
:102A300010E080F29E80B3F5007F80F06781DB08B4
:102A400003F1010C01229B1002FA03F34A6851F8CA
:102A50003C80C4F8088001EBCC091A43A9F10803B3
:102A6000E3604A6041F83C40C8F80C408310012400
:102A70009C40944200F28A80144206D120F0030068
:102A80006400144200F10400FAD007EBC009CC4600
:102A90008046DCF80C108C4507D173E1002A80F2E7
:102AA0008181C9688C4500F06D814B6823F0030378
:102AB0005A1B0F2AF2DD0C46D1F80CC054F8088FCF
:102AC0004B1945F001054D6042F00101C8F80CC0FA
:102AD0003046CCF808807B613B61C3F80CE0C3F85A
:102AE00008E059609A5000F029FA1FE0102921D817
:102AF00000F022FA1025062302207E4F07EB830305
:102B0000A3F108025C68944200F045816368E168C3
:102B1000A56823F00303234430465A68E96042F075
:102B200001028D605A6000F009FA0834204603B0B3
:102B3000BDE8F08F00240C232046336003B0BDE8CD
:102B4000F08F80234FF0400E3F2049E770465DE74D
:102B50002344E1685A68A56842F00102E960304602
:102B60008D605A6000F0EAF90834204603B0BDE8F1
:102B7000F08F234430465A6842F001025A6000F058
:102B8000DDF90834204603B0BDE8F08FBC68636807
:102B900023F00308A84504D3C5EB08030F2B00F36B
:102BA0008C80554BDFF860911A68D9F800300133FA
:102BB0002A4404EB080A00F0608102F580520F32CB
:102BC00022F47F6222F00F0211463046019200F09B
:102BD000B7F9B0F1FF3F8346019A00F05881824572
:102BE00000F2FC80454B1968DA451144196000F089
:102BF0005381D9F80000DFF810E101301BBFCAEBA8
:102C00000B0A5144CEF800B019601BF0070100F028
:102C10001781C1F10800C1F58051834408315A443D
:102C2000C2F30B02C2EB010949463046019300F0A2
:102C300087F9431C019B00F03F81CBEB00024A4423
:102C400042F001021968C7F808B04944BC42CBF809
:102C500004201960DFF8A49016D0B8F10F0F40F2ED
:102C6000FD806268A8F10C0323F00703E01802F06E
:102C700001024FF0050E1A430F2B6260C0F804E00A
:102C8000C0F808E000F21C811D4BBC681A68914234
:102C900088BF19601B4B1A689142626888BF19602F
:102CA00022F003029542A2EB050301D80F2B04DCAE
:102CB000304600F043F9002438E7621943F001037D
:102CC00045F0010565603046BA60536000F036F9A2
:102CD0000834204603B0BDE8F08F142B71D9542B73
:102CE00000F2A480280B00F16F0E4FEA4E036E3005
:102CF00076E600BF808DFF1F4096FF1F4496FF1FA2
:102D00003C96FF1F3896FF1F8C91FF1F5A0A042A1A
:102D10005ED9142A00F2B38002F15C0149005B32F3
:102D200007EB810C57F82110DFF8DC81ACF1080CBF
:102D30008C4500F088804A6822F00302934202D258
:102D400089688C45F7D1D1F80CC07A68C4F80CC0FA
:102D5000A160CCF80840CC6088E6631942F0010716
:102D600045F00105656030464B610B61C3F80CE02E
:102D7000C3F808E05F609A50083400F0DFF8D5E649
:102D80004A6873E608F1010818F0030F0CF1080C0B
:102D90007FF47FAE30E0DC68A34208BF02303FF42E
:102DA00035AEB3E60B440C465A68C96854F8085F60
:102DB00042F001025A603046E9608D6000F0BEF8D2
:102DC000B4E603F15C0E03F15B004FEA4E0307E645
:102DD0009A0902F1390149003832A1E7BC424A4B55
:102DE0003FF400AF9C68626822F003025AE759F88A
:102DF0000839994540F0828010F0030F00F1FF3050
:102E0000F5D17B6823EA04037B6064009C423FF6B3
:102E1000BDAE002C3FF4BAAE1C4240467FF435AE46
:102E200064001C4200F10400FAD02EE6B3F5AA7F3C
:102E300018D8E80B00F1780E4FEA4E037730CFE553
:102E40004FF48051EBE60121D8F80430921001FADA
:102E500002F21A43C8F80420614677E70123CBF851
:102E6000043025E740F25452934220D8A80C00F1D8
:102E70007D0E4FEA4E037C30B2E51032A4E6542AB0
:102E800026D81A0B02F16F0149006E3248E7BC6880
:102E9000626822F0030205E7CAF30B0000287FF402
:102EA000A8AE4244BB6842F001025A60ECE6FE2341
:102EB0004FF07F0E7E2093E501224FF00009C1E61E
:102EC00004F10801304600F017FAD9F80010DBE6EB
:102ED000B2F5AA7F05D8DA0B02F178014900773202
:102EE0001EE740F254518A4205D89A0C02F17D0146
:102EF00049007C3214E7FE217E2211E77B6884E7DB
:102F0000E808431C5B00F8E5808DFF1F82B049B1E3
:102F10005AB16BB113780B601278101C18BF0120E6
:102F200002B0704701A9002AF3D1104602B07047E1
:102F30006FF00100F4E700BF704700BF704700BFAB
:102F400038B5074C0023054608462360FDF74EFFC1
:102F5000431C00D038BD2368002BFBD02B6038BD4C
:102F60008096FF1F80EA0102844612F0030F4FD1C2
:102F700011F0030F32D14DF8044D11F0040F51F848
:102F8000043B0BD0A3F101329A4312F0803F04BFFF
:102F90004CF8043B51F8043B16D100BF51F8044BE8
:102FA000A3F101329A4312F0803FA4F101320BD118
:102FB0004CF8043BA24312F0803F04BF51F8043B9D
:102FC0004CF8044BEAD023460CF8013B13F0FF0FFA
:102FD0004FEA3323F8D15DF8044B704711F0010F2D
:102FE00006D011F8012B0CF8012B002A08BF7047FE
:102FF00011F0020FBFD031F8022B12F0FF0F16BFF5
:103000002CF8022B8CF8002012F47F4FB3D17047BC
:1030100011F8012B0CF8012B002AF9D1704700BFE1
:10302000024B1A6801235C3200F002B8108CFF1FBB
:10303000F0B420B307460D4617F8016B01E0A64235
:1030400016D015F8014B002CF9D1EEB13E460C46D6
:1030500016F8015B00E073B114F8013B9D42FAD110
:103060005DB100233B70166006463046F0BC7047E9
:1030700063B13846DEE73746E8E72E46F3E71068E7
:103080000028D7D10646F0E71660EEE7176006463F
:103090000370EAE72DE9F84FDDF828900F468046E7
:1030A00016461D468B4600E0A3465C46484614F88B
:1030B00001ABFFF767FC5044417801F0080101F0D3
:1030C000FF0C0029F0D152462D2A61D02B2A04BFD3
:1030D0009BF801200BF10204002D43D0102D65D088
:1030E000A946BCF1000F0CBF6FF0004A4FF0004A38
:1030F0000021BAFBF9FE084609FB1EAA05E029D00B
:1031000009FB0030012114F8012BA2F13003092B37
:1031100005D9A2F14103192B0AD8A2F137039D4228
:103120000EDD4A1CEFD08645E9D24FF0FF31EAE7C9
:10313000A2F16103192B03D8A2F157039D42F0DCE1
:103140004B1C15D0BCF1000F10D14EB1E1B9376066
:10315000BDE8F88F9A45D3DA70464FF0FF31D2E7D9
:10316000BDE8F88F302A1AD00A25B9E74042ECE7CB
:10317000BCF1000F4FF022030CBF6FF000404FF086
:103180000040C8F80030F6B1671E3760BDE8F88F20
:103190000BF102049BF801204FF0010C9CE723780F
:1031A00003F0DF03582B08D0082599E7302A97D180
:1031B000237803F0DF03582B92D14FF01009627887
:1031C0004D4602348DE7BDE8F88F00BF30B5084C9E
:1031D000084B25686C6B83B0002C08BF1C4600941C
:1031E00013460A4601462846FFF754FF03B030BD98
:1031F000108CFF1F148CFF1F21B1FF2A04D80A7006
:1032000001207047084670478A2303604FF0FF3063
:10321000704700BF024B13B1024800F005B8704779
:103220000000000035320000002301461A4618460F
:1032300000F04AB938B5074D074C2C1BA41005D037
:10324000013C55F8043D9847002CF9D1BDE83840C1
:1032500000F00CBC0000000000000000F8B5234F97
:103260000C460646FFF768FEBB685D6825F003055F
:10327000291B01F6EF7121F47F6121F00F01A1F507
:103280008054B4F5805F07DB00213046FFF758FE1D
:10329000BB682B44984204D03046FFF74FFE002015
:1032A000F8BD61423046FFF74BFE01300DD0104BA8
:1032B000BA6819682D1B45F001053046091B556099
:1032C0001960FFF73BFE0120F8BD00213046FFF7F3
:1032D00037FEBA68831A0F2BDEDD064C04492468DA
:1032E00043F00103001B53600860D5E7808DFF1F8A
:1032F0004496FF1F8C91FF1F002945D02DE9F04116
:103300000D468046FFF718FE55F8047C6A4927F001
:103310000103A5F10804E2188E685068B24220F05B
:10332000030062D0FE0750600BD455F8087CE41B04
:1033300001F1080EA56875453B446FD0E768EF6062
:10334000BD6015186D68ED0742D543F0010262605B
:10335000E350B3F5007F18D2DB085A1C4D6851F8D2
:103360003270A76001209B1000FA03F301EBC2004A
:103370001D430838E0604D6041F83240FC60404633
:10338000BDE8F041FFF7DABD70475A0A042A53D866
:103390009A0902F139077F0002F1380501EB870035
:1033A00051F827204449083890424DD0516821F007
:1033B00003018B4202D292689042F7D1D068E0605C
:1033C000A2608460D4604046BDE8F041FFF7B6BD1E
:1033D00095683A4FBD4203443FD0D068E86043F05F
:1033E000010285606260E350B3E7FF07034407D43E
:1033F00055F8082CA41A1344A068E268C2609060D3
:103400002F4A126843F00100934260608C60B6D38B
:103410002C4B40461968FFF721FFB0E711184968A7
:10342000C90744D49168D268CA60034443F00100DC
:1034300091606060E350A2E7142A17D802F15C079C
:103440007F0002F15B05A9E7AA104B68012505FA88
:1034500002F213434B600246B1E743F001024C61B4
:103460000C61E560A5606260E35088E7542A06D8E5
:103470001A0B02F16F077F0002F16E058EE7B2F5BD
:10348000AA7F06D8DA0B02F178077F0002F17705F0
:1034900084E740F25450824206D89A0C02F17D072C
:1034A0007F0002F17C0579E7FE277E2576E743F071
:1034B00001026260E35062E7808DFF1F888DFF1F6D
:1034C0008891FF1F4096FF1F2DE9F047254C256886
:1034D000D5F848410646884692469946C4B3606886
:1034E0001F2817DC431C76B104EB80050122C5F8C8
:1034F00088A0D4F8881182401143022EC4F88811A4
:10350000C5F808911ED00230636044F82080002086
:10351000BDE8F087144B03B34FF4C870FFF736FAD9
:103520000446D0B1D5F84831002780E88800C5F8B6
:10353000484138460123C4F88871C4F88C71002EC4
:10354000E1D0D1E7D4F88C110A43C4F88C21DAE732
:1035500005F5A674C5F84841C1E74FF0FF30BDE856
:10356000F08700BF383900008D290000000A2CFFC9
:1035700048656C6C6F20576F726C642066726F6D5B
:103580002041726475696E6F456666656374734D3C
:10359000616E6167657200004865782076616C75C0
:1035A000652072656365697665643B005247422019
:1035B0004F75747075742053746174653B0000001E
:1035C000456E61626C65640044697361626C656438
:1035D000000000004F6E00004F6666005465656E87
:1035E0007379204C454420537461746520436861AD
:1035F0006E67653B00000000436F6D6D616E642077
:103600004E6F74205265636F676E697365642E2018
:10361000446174612072656365697665643B00008E
:103620005553422048616E647368616B6500FFFF0B
:103630002B2C4563686F203B00000000402C536535
:103640007269616C2055534220496E7374727563C0
:1036500074696F6E20746F6F206C6F6E672E2049D7
:103660006E646578206F76657220666C6F772E20A9
:10367000496E76616C696420496E70757400000053
:103680002B2C53657269616C205553422044617440
:10369000612074696D656F75742E20496E636F6D5E
:1036A000706C657465205061636B65742052656150
:1036B000643B0A002B2C4563686F3B000A00000046
:1036C000402C53657269616C20506F727420526592
:1036D000616420496E737472756374696F6E2074CF
:1036E0006F6F206C6F6E672E20496E646578206F57
:1036F00076657220666C6F772E20496E76616C69F4
:103700006420496E707574002B2C53657269616C6E
:1037100020506F727420446174612074696D656F0C
:1037200075742E20496E636F6D706C6574652050E2
:1037300061636B657420526561643B0A00000000A0
:103740007E2C436F6D6D7320457874656E6465647F
:103750002053657269616C204572726F72202D2052
:1037600050617273696E672064617461206F757453
:10377000206F6620626F756E64730A002B2C436C99
:10378000656172696E672053657269616C2055537B
:10379000422042756666657220666F722044656CD1
:1037A00061793B004008FE4340A004404408FE43CA
:1037B00044A004400018FE4300C004403000FE4313
:1037C000309004403400FE43349004401C18FE4303
:1037D0001CC004401018FE4310C004400818FE43EB
:1037E00008C004400C18FE430CC004400C10FE43FB
:1037F0000CB004401010FE4310B004401810FE43FB
:1038000018B004401C10FE431CB004401410FE43CA
:1038100014B004400418FE4304C004400010FE43EA
:1038200000B004400008FE4300A004400408FE432A
:1038300004A004400C08FE430CA004400808FE430A
:1038400008A004401418FE4314C004401818FE4396
:1038500018C004400410FE4304B004400810FE43A6
:1038600008B004401400FE43149004404C08FE438A
:103870004CA004400420FE4304D004402410FE4326
:1038800024B004402010FE4320B004402810FE4322
:1038900028B004402C10FE432CB004400020FE430E
:1038A00000D004404808FE4348A004401000FE43F6
:1038B000109004400D0AFFFF00000000000000000F
:1038C00031230000292300002523000021230000CC
:1038D0001D23000019230000152300001123000000
:1038E00000151915000100004087FF1F120000009D
:1038F000000200006C87FF1F43000000000300006F
:10390000C887FF1F00000000010309045487FF1F40
:103910000000000002030904B087FF1F0000000040
:1039200003030904CC87FF1F000000000000000013
:103930000000000000000000E887FF1F43000000B7
:10394000504F5349580000002E0000000020202056
:10395000202020202020282828282820202020203F
:10396000202020202020202020202020208810100F
:10397000101010101010101010101010100404046B
:103980000404040404040410101010101010414129
:103990004141414101010101010101010101010117
:1039A000010101010101010110101010101042422B
:1039B00042424242020202020202020202020202E7
:1039C0000202020202020202101010102000000087
:1039D00000000000000000000000000000000000E7
:1039E00000000000000000000000000000000000D7
:1039F00000000000000000000000000000000000C7
:103A000000000000000000000000000000000000B6
:103A100000000000000000000000000000000000A6
:103A20000000000000000000000000000000000096
:103A30000000000000000000000000000000000086
:103A400000000000000000000000000000FFFFFF79
:103A5000F8B500BFF8BC08BC9E46704715320000A0
:0C3A600035040000B9060000810D0000D4
:043A6C00F8B500BFEA
:103A70008496FF1F08000000FFFFFFFFC038000012
:103A800000000000E8030000000000000A0400003D
:103A90001201010102000040C0168304000201026D
:103AA0000301000018035400650065006E007300F8
:103AB00079006400750069006E006F000902430020
:103AC000020100C0320904000001020201000524C5
:103AD000001001052401010104240206052406004A
:103AE000010705820310004009040100020A0000DA
:103AF00000070503024000000705840240000000A3
:103B00001603550053004200200053006500720068
:103B1000690061006C000000040309040C0300004C
:103B20000000000000000000000000000000000095
:103B3000000000000000000000000000D48AFF1F09
:103B40003C8BFF1FA48BFF1F000000000000000043
:103B50000000000000000000000000000000000065
:103B60000000000000000000000000000000000055
:103B70000000000000000000000000000000000045
:103B80000000000000000000000000000000000035
:103B90000000000000000000000000000000000025
:103BA0000000000000000000000000000000000015
:103BB0000000000000000000000000000000000005
:103BC00000000000000000000000000000000000F5
:103BD00000000000000000000000000000000000E5
:103BE00001000000000000000E33CDAB34126DE682
:103BF000ECDE05000B0000000000000000000000EB
:103C000000000000000000000000000000000000B4
:103C100000000000000000000000000000000000A4
:103C20000000000000000000000000000000000094
:103C30000000000000000000000000000000000084
:103F6000E887FF1F43000000000000000000000081
:103F70000000000000000000000000000000000041
:103F800000000000430000000000000000000000EE
:103F90000000000000000000000000000000000021
:103FA00000000000430000000000000000000000CE
:103FB0000000000000000000000000000000000001
:103FC00000000000430000000000000000000000AE
:103FD00000000000000000000000000000000000E1
:103FE000000000004300000000000000000000008E
:103FF00000000000000000000000000000000000C1
:10400000000000004300000000000000000000006D
:1040100000000000000000000000000000000000A0
:10402000000000004300000000000000000000004D
:104030000000000000000000000000000000000080
:1040400000000000F93100000D2F0000000000000A
:104050004C390000483900003C3700003C37000074
:104060003C3700003C3700003C3700003C37000084
:104070003C3700003C3700003C370000FFFFFFFFEB
:10408000FFFFFFFFFFFFFFFFFFFF000001004153A5
:10409000434949000000000000000000000000004B
:1040A000000000000000000000000000000041537C
:1040B000434949000000000000000000000000002B
:1040C00000000000000000000000000000000000F0
:1040D0000000000000000000808DFF1F808DFF1F8A
:1040E000888DFF1F888DFF1F908DFF1F908DFF1FF4
:1040F000988DFF1F988DFF1FA08DFF1FA08DFF1FA4
:10410000A88DFF1FA88DFF1FB08DFF1FB08DFF1F53
:10411000B88DFF1FB88DFF1FC08DFF1FC08DFF1F03
:10412000C88DFF1FC88DFF1FD08DFF1FD08DFF1FB3
:10413000D88DFF1FD88DFF1FE08DFF1FE08DFF1F63
:10414000E88DFF1FE88DFF1FF08DFF1FF08DFF1F13
:10415000F88DFF1FF88DFF1F008EFF1F008EFF1FC1
:10416000088EFF1F088EFF1F108EFF1F108EFF1F6F
:10417000188EFF1F188EFF1F208EFF1F208EFF1F1F
:10418000288EFF1F288EFF1F308EFF1F308EFF1FCF
:10419000388EFF1F388EFF1F408EFF1F408EFF1F7F
:1041A000488EFF1F488EFF1F508EFF1F508EFF1F2F
:1041B000588EFF1F588EFF1F608EFF1F608EFF1FDF
:1041C000688EFF1F688EFF1F708EFF1F708EFF1F8F
:1041D000788EFF1F788EFF1F808EFF1F808EFF1F3F
:1041E000888EFF1F888EFF1F908EFF1F908EFF1FEF
:1041F000988EFF1F988EFF1FA08EFF1FA08EFF1F9F
:10420000A88EFF1FA88EFF1FB08EFF1FB08EFF1F4E
:10421000B88EFF1FB88EFF1FC08EFF1FC08EFF1FFE
:10422000C88EFF1FC88EFF1FD08EFF1FD08EFF1FAE
:10423000D88EFF1FD88EFF1FE08EFF1FE08EFF1F5E
:10424000E88EFF1FE88EFF1FF08EFF1FF08EFF1F0E
:10425000F88EFF1FF88EFF1F008FFF1F008FFF1FBC
:10426000088FFF1F088FFF1F108FFF1F108FFF1F6A
:10427000188FFF1F188FFF1F208FFF1F208FFF1F1A
:10428000288FFF1F288FFF1F308FFF1F308FFF1FCA
:10429000388FFF1F388FFF1F408FFF1F408FFF1F7A
:1042A000488FFF1F488FFF1F508FFF1F508FFF1F2A
:1042B000588FFF1F588FFF1F608FFF1F608FFF1FDA
:1042C000688FFF1F688FFF1F708FFF1F708FFF1F8A
:1042D000788FFF1F788FFF1F808FFF1F808FFF1F3A
:1042E000888FFF1F888FFF1F908FFF1F908FFF1FEA
:1042F000988FFF1F988FFF1FA08FFF1FA08FFF1F9A
:10430000A88FFF1FA88FFF1FB08FFF1FB08FFF1F49
:10431000B88FFF1FB88FFF1FC08FFF1FC08FFF1FF9
:10432000C88FFF1FC88FFF1FD08FFF1FD08FFF1FA9
:10433000D88FFF1FD88FFF1FE08FFF1FE08FFF1F59
:10434000E88FFF1FE88FFF1FF08FFF1FF08FFF1F09
:10435000F88FFF1FF88FFF1F0090FF1F0090FF1FB7
:104360000890FF1F0890FF1F1090FF1F1090FF1F65
:104370001890FF1F1890FF1F2090FF1F2090FF1F15
:104380002890FF1F2890FF1F3090FF1F3090FF1FC5
:104390003890FF1F3890FF1F4090FF1F4090FF1F75
:1043A0004890FF1F4890FF1F5090FF1F5090FF1F25
:1043B0005890FF1F5890FF1F6090FF1F6090FF1FD5
:1043C0006890FF1F6890FF1F7090FF1F7090FF1F85
:1043D0007890FF1F7890FF1F8090FF1F8090FF1F35
:1043E0008890FF1F8890FF1F9090FF1F9090FF1FE5
:1043F0009890FF1F9890FF1FA090FF1FA090FF1F95
:10440000A890FF1FA890FF1FB090FF1FB090FF1F44
:10441000B890FF1FB890FF1FC090FF1FC090FF1FF4
:10442000C890FF1FC890FF1FD090FF1FD090FF1FA4
:10443000D890FF1FD890FF1FE090FF1FE090FF1F54
:10444000E890FF1FE890FF1FF090FF1FF090FF1F04
:10445000F890FF1FF890FF1F0091FF1F0091FF1FB2
:104460000891FF1F0891FF1F1091FF1F1091FF1F60
:104470001891FF1F1891FF1F2091FF1F2091FF1F10
:104480002891FF1F2891FF1F3091FF1F3091FF1FC0
:104490003891FF1F3891FF1F4091FF1F4091FF1F70
:1044A0004891FF1F4891FF1F5091FF1F5091FF1F20
:1044B0005891FF1F5891FF1F6091FF1F6091FF1FD0
:1044C0006891FF1F6891FF1F7091FF1F7091FF1F80
:1044D0007891FF1F7891FF1F00000200FFFFFFFF90
:00000001FF
